:1020000000800020B9A20000B5A20000B5A2000027
:1020100000000000000000000000000000000000C0
:10202000000000000000000000000000B5A2000059
:102030000000000000000000B5A200000DA3000099
:10204000B5A20000B5A20000B5A20000B5A2000034
:10205000B5A20000B5A2000011290000E14C00006B
:10206000B5A200004D980000B5A20000B5A2000086
:10207000B5A20000B5A20000B5A20000B5A2000004
:10208000B5A20000B5A20000B5A20000B5A20000F4
:1020900000000000B5A20000B5A20000B5A200003B
:1020A000B5A20000B5A20000B5A20000B5A20000D4
:1020B0000000000010B5064C2378002B07D1054B1B
:1020C000002B02D0044800E000BF0123237010BDA4
:1020D000600100200000000034D20000044B10B565
:1020E000002B03D00349044800E000BF10BDC046E8
:1020F000000000006401002034D20000704701207D
:102100007047000010B5530A14000A00010005488A
:1021100002F08BF8002801D0200010BD01204042C1
:10212000FBE7C0461C06002010B5530A14000A0045
:102130000100054802F084F8002801D0200010BDFD
:1021400001204042FBE7C0461C06002010B50C48A9
:1021500002F059F80B4C631DDB7FDB0709D400222A
:10216000631DDA7701235B4223630122064B1A7059
:1021700010BD064801F01AFF0028F0D1F5E7C0466F
:102180001C0600209001002040060020B401002021
:1021900010B5040008F042F9200010BD37B5364DE7
:1021A000280002F030F8354C354B20000021354A2C
:1021B0000093354B02F06EFC344B20000021344A72
:1021C0000093344B02F07CFC00212000324A02F0E4
:1021D00080FC280002F056F88023420A9B00200071
:1021E000002102F060FC01220021200002F062FCCC
:1021F000200002F073FC294C01220023290020005A
:1022000001F020FE021E2BD0254D280001F038F8E9
:102210002100280000F008FE002829D1E1212148F2
:10222000490202F0D1F901221F4C204B20001A7004
:1022300007F044F85021200007F011F9200007F0C2
:1022400042F81B4C200007F01BF9200007F0F6FABB
:10225000200007F067F93221200007F0C9FA37BDE6
:1022600003002900200001F0EDFD0028CCD1D5E7C6
:10227000104B1C60D2E7C0461C060020B8060020A8
:1022800038BE00002FBE000020BE00004D2100001F
:102290000521000029210000FF20000090010020FE
:1022A000D4050020800D0020800100204006002081
:1022B000A00600205C09002073B5C822DF21204D54
:1022C00092022800090201F0CFFF1E4C1E49220095
:1022D000280008F0E3FA00231C4D1D4AEB71AB52B5
:1022E0001C4A1D48AB541D4A138093701C4A13802E
:1022F000937002F0BBFB1B4E2900300006F062FC1D
:1023000022003000184908F0C9FA0623174D00933F
:102310000322023B0121280007F05AF8220028007E
:10232000134908F0BBFA134D5223280001223C2127
:1023300007F010FA280022000F4908F0AFFA73BD29
:102340001C06002000000020FD200000900100205D
:102350004404000046040000B80600207C0600206B
:10236000F805002044060020E18B000080010020D9
:102370009D920000A006002065940000F0B5554B2A
:10238000554F1A7889B0002A45D0002204A81A7047
:1023900006F0C6FB514C5249200007F0A1FA514EFD
:1023A000514D03AB290002AA300006F035FC220093
:1023B00001000090300006F055FF009B002B7ED1FD
:1023C0004A49200007F08CFA0A220299200007F0FF
:1023D000D5FA7821200002F079F80A22039920002A
:1023E00007F0EBFA2900300004AA06F02FFF0028BE
:1023F00060D13F49200007F08FFA04A806F0D3FB14
:102400003860364807F076FAFA20800007F0CCFFF3
:1024100004A806F0C2FB3B686420002B55D007F0EF
:102420007DFF3C6833490E23E55E0726684308F0CC
:1024300051FA290008F0D4FA0BB21A00002120004A
:10244000009305F04FFF03250212C310B243AB43C4
:10245000D2B2DBB21B0212041A43A840FF23264C5F
:10246000184002430021200006F0E8FF200000246D
:1024700006F029FF01953868204D0C22835E9C42AE
:102480001FDA21B2009A05F02DFF01990212C31044
:102490008B43B243D2B2DBB21B0212041A43FF23B6
:1024A000C00018400243A1B22800013407F069F9C6
:1024B000E4B2E0E71249200007F02EFAA1E7114943
:1024C000F9E7280007F02EF8322007F06DFF09B079
:1024D000F0BDC046400600207C010020800D002099
:1024E0003CBE0000440600205BBE000064BE00004D
:1024F00077BE0000DC05000080010020A00600205F
:102500007FBE000088BE000010B500F04DFB002229
:10251000024B8000C35849331A7010BD7007002069
:10252000F0B5040085B01E000AAB1B781030019393
:102530000BAB1B78170002930CAB1B780D000393B9
:1025400000F0B4F92000243000F0B0F9220000239C
:102550004832A363E363236463641370537063724C
:102560009D4205D12721084B084A094808F028FB5D
:102570002000019B25606371029B2771E371039B1F
:10258000A671237205B0F0BD94BE0000A5BE000088
:10259000F9BE000030B5040085B002AD00680291BC
:1025A000039207F0EDFA6B79227AE17920680093C3
:1025B000002307F021FC2979029A206807F004FB28
:1025C000206807F0D3FA05B030BD000007B5837A64
:1025D00000910192002B07D09A070AD5EFF31083E0
:1025E0005A425341C37272B60099019AFFF7D2FF63
:1025F00007BDDB07F8D5C368014A9BB29360F3E7D8
:1026000000180040837A002B05D09A0704D5C37ABE
:10261000002B00D062B67047DB07FCD5C368024AC6
:102620009BB2D360F7E7C0460018004010B50068C1
:1026300007F0AFFA10BD70B505000C008E18B4425B
:1026400006D021782800FFF7F1FF20700134F6E76B
:1026500070BD000010B5006807F030FB03000020DB
:10266000834203DB0C304343014A985810BDC046F7
:102670005CBF000010B5006807F020FB002805DBF8
:102680000C2343430348C018406810BD012040425A
:10269000FBE7C0465CBF000010B5006807F00EFB0A
:1026A000002805DB0C2343430348C018806810BD95
:1026B00001204042FBE7C0465CBF0000F0B50600C9
:1026C0001036050089B0300000F046F900286CD1C2
:1026D0002F002437380000F03FF9041E62D1280093
:1026E000FFF7DAFFC1B2300000F016FA0221300025
:1026F00000F036FA01222E49300000F009FA3000CD
:1027000000F052FA2B4B8000C5502800FFF7B2FFB3
:10271000C1B2380000F000FA0221380000F020FABF
:10272000380000F041FA234B8000C5502800FFF725
:1027300091FF012301002200029330002300049442
:1027400003940194009400F031FAA8632800FFF785
:1027500081FF01230200210001933800230004942B
:1027600003940294009400F021FAE863402008F0FA
:1027700091FA2A0048322864079200280BD00123DE
:10278000137068646B6C10221819E96B103408F030
:10279000AEFA402CF6D1079B1B78002B05D13800F0
:1027A00000F074F9300000F071F909B0F0BDC046D6
:1027B000092500007007002070B5437A0400002B43
:1027C00003D1012243814272C360230048331B7846
:1027D000002B02D12000FFF771FF182633000821DB
:1027E00020790D4D4343EB18595607F0F9FF33009C
:1027F0000821A0794343EB18595607F0F1FF08214F
:1028000060794643AD19695607F0EAFF034B200093
:1028100006CBFFF7BFFE70BD20CF00006807002089
:102820001FB5084B084A09491A6000229A80022302
:1028300001920092029306320548FFF771FE05B03F
:1028400000BDC0466807002000093D00AC1C002008
:102850001C070020084B1968002909D1EFF31080EC
:10286000064A002803D172B6BFF35F8F01311170A1
:102870001A6801321A6070472809002024090020D4
:10288000084B1A68002A0CD01A68013A1A601B68B3
:10289000002B06D1044B1B78002B02D0BFF35F8FB7
:1028A00062B670472809002024090020FF2310B5D4
:1028B0000370C023002104009B004170418083808D
:1028C0000C22083008F02FFA200010BD01230A0066
:1028D00010B51A40194208D00C4A137003334370E4
:1028E0008368002B00D0984710BD0223194204D002
:1028F00006490B70C3684270F3E704231942F3D012
:10290000024A1370033343700369EAE74E480041FB
:1029100010B5FFF79FFF0C4B1B8C1B071B0F0B2BDE
:102920000FD80A4A9900885800280AD00F2408496D
:102930000A78A24313430B70064B1978C9B2FFF70C
:10294000C5FFFFF79DFF10BD004800412C09002086
:102950003F4800414E480041F8B500230278050089
:1029600018000B2A77D93C4E2B702B780B2B07D8ED
:1029700001229A403168114204D001332B70F4E7F0
:10298000012068E0FFF766FF3768344C002F2BD139
:102990002022334B334859690A435A611022D969BE
:1029A0000A43DA6102222388390093432380238873
:1029B000013A134323802C4B6063BF32A36308F0BA
:1029C000B2F9C0223900284808F0ADF94022C120F0
:1029D000264B80002380264B26491A601A58114046
:1029E000C02212040A431A5001231A0029783068C1
:1029F0008A40024332600F261F4A880085501F48D4
:102A000031400278B2430A43027002201C4A117816
:102A100081431170117819431170297822698B4014
:102A20009A43226160223F21636C934363642A7955
:102A3000636C0A40134912020B4003211343636481
:102A40006A79636C0A40104992050B401343636432
:102A5000FFF716FF0020F8BD2009002000480041C4
:102A60000004004060080020A0070020020F0000C2
:102A700000E100E0FFFF00FF2C0900203F4800417B
:102A800040480041FFC0FFFFFFFF3FFF70B505005A
:102A9000FFF7E0FE6B785CB2062B2BD02B7802247C
:102AA0000B2B27D801229A40144B1968114221D0D0
:102AB0001968914319601B68002B14D14022104BF8
:102AC000DA67BFF34F8FBFF36F8F21000D4A0E31CE
:102AD0001388A34313800C4BDA698A43DA615A697D
:102AE00010318A435A6100242B78084A9B009C507D
:102AF000FF232B70FFF7C4FE200070BD20090020CB
:102B000004E100E000480041000400402C090020DE
:102B10000232920011507047037870B505000C0026
:102B200001710B2B14D8FFF795FE29780F25094862
:102B300029400378084AAB430B4303703F23516C91
:102B40001C40064B240219400C435464FFF798FEC6
:102B500070BDC0463F48004100480041FFC0FFFF34
:102B6000037870B505000C0041710B2B14D8FFF7EA
:102B700071FE29780F25094829400378084AAB439C
:102B80000B4303700323516C1C40064BA4051940F2
:102B90000C435464FFF774FE70BDC0463F480041CB
:102BA00000480041FFFF3FFF00787047F0B587B055
:102BB00001930CAB1E780DAB1B78050002930EAB96
:102BC0001B780078039310AB1F78049105920B28B3
:102BD00002D9002007B0F0BD6B78062BF9D0AB7896
:102BE000002B00D179E01021080008F049F80028F6
:102BF000EFD02B783B4A1B019B181A00D1680029A3
:102C000004D0D1688B4201D0D268F7E7D0600122AE
:102C10000223AA70964203D0DB18022E00D01300C4
:102C200006240188114301800188A14301800188A5
:102C30001234A1430180153C018826402A4C3602FB
:102C400021400E430680029E0188284C16402140F8
:102C5000B6020E430680039E0188254C1640214093
:102C6000F6020E4306800188224E3A40314012039C
:102C70000A43072102800F9A114002884903D204B7
:102C8000D20C0A4302806A4692884280049A4260CB
:102C9000029A002A08D0019A41685A43002F01D0B5
:102CA0000F9CA2408A184260059A8260039A002A0B
:102CB00009D0019A84685A431300002F01D10F9A5A
:102CC0009340E31883600023EA789A4203D02B787C
:102CD000044A1B019B18C3607CE7024B0001C0182B
:102CE00095E7C04660080020FFFCFFFFFFFBFFFFE9
:102CF000FFF7FFFFFFEFFFFF437802781B021A4345
:102D00008378C0781B04134300061843704770B5DE
:102D100005000C00081E07D008F0F2FB2B6802002B
:102D2000210028005B68984770BD10B5040024306E
:102D300001F03CF9002801D1002010BD8D239B003B
:102D4000E01801F033F90028F6D020680368DB6949
:102D50009847F2E7020070B5056904002900806811
:102D6000103201F015F800280AD0A378002D08D100
:102D700040221343A3708023A2785B421343A370C5
:102D800070BD22690135AA42F5D040229343F1E794
:102D9000F7B502784023150004001D401A4202D006
:102DA00000263000FEBD174B42699A42F8D8FFF763
:102DB000D1FF061EF4D0A26823699179023B8B40B3
:102DC00080275269BF009B180193A0680379AB422A
:102DD0000ED9019B0522E918243001F00DF90028D5
:102DE000DED03A000021013507F09DFFEDB2ECE79F
:102DF000802382799B04934062691B0CD318636122
:102E0000CFE7C046FFFD1F0010B5040080680A0030
:102E10002430A16901F0F0F8002804D00F22A38823
:102E200013405B01C01810BD70B500250378040085
:102E30000E00AB420FD12422290007F074FFA660D8
:102E4000F379102B03D0202B07D00C2B03D1402378
:102E500001252370A570280070BD8023F8E7F0B528
:102E6000837887B0040004910392DB076ED5037862
:102E70001A0732D5C36942699B1A039A9A4200D94C
:102E80000393039B019300230593019B002B00D127
:102E9000A4E0402562692378D705A068FF0D510A98
:102EA0002B4223D0036ACB188026A5680293B60074
:102EB000002F52D1019BB3424FD32A6B029B934206
:102EC0004BD080230199DB00994262D2A86A049A10
:102ED000036802991B69984772E05B06D1D5836845
:102EE00042695B895B019B1A9BB2C6E74579294021
:102EF0000591002F08D1002906D1002A10D15BB21C
:102F0000002B0BDA036A2361A26823699179023BE3
:102F10008B4052699B18059A9B18C5E7236AF2E714
:102F200008222169134206D0A3783832134202D016
:102F300001312161E8E72200103200F052FE002842
:102F400004DBE1D12F222378934347D102230120D0
:102F5000627840421343637043E0F31B019E9E423C
:102F600000D91E00280000220299243001F044F804
:102F70000028EBD0C1193200049807F0B8FE049B7A
:102F80009B19049363699B196361019B9B1B0193CC
:102F90007BE74021019B5F0A23780B4205D12B7907
:102FA00005995B1A9F4200D91F00029B7E02934243
:102FB00009D9A86A049A036802995D693B00A84789
:102FC0000028DCD1C2E7029BDB199A42F1D228002B
:102FD000243000F0EBFF0028EBD1B7E7039B019A08
:102FE000981A07B0F0BDF7B56B46DF1D0122390016
:102FF000040046690569FFF732FF012803D13878DC
:1030000066612561FEBD01204042F9E7436937B59D
:10301000DD0504002D0F01D0002912D16B460122DD
:103020002000D91DFFF71BFF40B2012801D000206E
:103030003EBD63691F33A0686D0134306361401980
:10304000F6E72033F7E7F7B5036904000193037847
:103050000D00002B13D040690122884208D00029BE
:1030600008D121612022A37865619343A3701F3AA0
:103070001000FEBD1A0706D5E2698A420BD2019BF9
:1030800000222361F4E75A0605D5A3685B895B013A
:103090008B42E7D2F3E7A168A7788A796E1E0932DE
:1030A000D2B2D6407F0603D5236A9E192661D9E79E
:1030B000471ED740BE4201D3002812D15BB2002B7D
:1030C0000DDA0B6A2361002ECCD022002169A068A2
:1030D000103200F086FD013E0028F4DCCFE7236AC1
:1030E000F0E7F61BEFE7F7B50F0004001E0008AB92
:1030F0001B78150000212422019307F014FEB86804
:103100003B6A0F22E3600300A580154034336D0154
:10311000A0605D19EB7A073A134247D137210B4083
:103120002370EF7A1F390F4201D113432370019BA3
:103130000322E37033001340012B31D0022B06D061
:10314000002B33D1730531D40123A37000E0A270AA
:10315000A1788B0707D52378DA0627D4DA0725D498
:1031600020221A432270082333400B43A370036BC1
:10317000A3616B7D297D1B02EA7E1943AB7E12029F
:10318000090413431943730514D500290AD1802378
:10319000A2785B421343A370730418D40120FEBDD0
:1031A0000223D2E700F032FE0028F0D10020207088
:1031B000A070F4E721626A7F2B7F12021A43AB7F73
:1031C0001B041A43EB7F1B061343E361E4E7200073
:1031D000E169FFF738FF0028E0D1E7E7F7B50378AA
:1031E00005000120002B0DD0AB787F2B40D90100CA
:1031F0002800FFF709FE041E05D1012300206A788C
:1032000013436B70FEBD0378E52BF6D037222B7885
:103210001340C3722B781B0707D5EB691A0A037793
:1032200042771A0C1B0E8277C3772B6AA3761B1288
:10323000E3762B6A1B0C23751B1263750F4B1B68FF
:10324000002B11D06A4601AF961D310003323800C1
:1032500098473B88DAB21B0A6376E3743388227698
:10326000A3751B12A274E3757F22AB781340AB7079
:10327000A868FFF75AFD0028BFD0C3E76009002007
:1032800010B50400FFF7AAFF00232370A37010BD40
:10329000F0B51E00002395B002AD01920BAA2B8061
:1032A000AB709381037804000F00002B02D0002044
:1032B00015B0F0BD2F220B789343F8D0019B1B78FB
:1032C000934213D1019B1A782F2A02D10133019323
:1032D000F8E7B968002A03D12000FFF7A5FDE7E76A
:1032E0002800FFF7A1FD0028E1D02F002000019960
:1032F00001AB0BAA00F0FEFB0028D8D0019B1B7885
:10330000002B13D00023390020000BAA00F0ACFAE8
:103310000028CCD02A00230083CB83C283CB83C276
:1033200083CB83C22000FFF7ABFFDEE73300390019
:1033300020000BAA00F098FABAE7000010B50400CC
:103340000020814204D0034809182000FFF7A0FFA5
:1033500010BDC04644040000F7B583780400009116
:1033600001929A0707D51B070CD46369019ADB43C6
:103370001600934258D201236278134363700023EE
:103380000193B8E0C169FFF75EFE0028EDD1F2E7D6
:1033900022006046103200F024FC0028EBDB5FD1F5
:1033A0002000FFF7D7FC00285AD1E4E7236A002B5E
:1033B00007D12000FFF7CEFC0028DCD02369236270
:1033C0004EE023614CE080239B0037005B1B9E4254
:1033D00000D91F000122002D0AD1636904329C46E6
:1033E000E3699C4504D2A378043A9B0600D50432D5
:1033F000243000F001FE0028BDD040193A000099A9
:1034000007F075FC80237D199B009D4205D1A068C3
:10341000243000F0CBFD0028ADD06369F61BDB192A
:103420006361009BDB1900936369002E55D0A2688D
:10343000DD059446614649795A0A0F00ED0D1740A3
:1034400011420DD1002D0BD121690029AED04020B1
:10345000A27802429CD0E2699A4299D90131216155
:10346000A0682369991E837999404369C918C919CD
:10347000002DA8D180239B009E42A4D38023026B01
:10348000DB009E4211D2914204D1431DDD7701231E
:103490005B420363806A009A03681B6A98470028AE
:1034A00000D168E78027BF00B7E70379750ADB1B07
:1034B000AB4200D92B005F02914208D8CD1895424B
:1034C00005D90025421DD577012252420263806A48
:1034D0000268556A009AA8479DE7E2699A4206D2B7
:1034E000E3618023A2785B421343A37003E0034BA4
:1034F0001B68002BF5D10198FEBDC0466009002075
:103500000100030000200B314208C00110431A786B
:1035100001338018C0B28B42F6D1704710B5490113
:103520000400FFF790FD0021884203D02000FFF740
:103530006DFD0100080010BDF0B591B0039107A921
:103540001500049302000B00029013CA13C313CAA0
:1035500013C313CA13C32B6801276B600023AB810D
:10356000049B9F4231D8039B07A8D91B89B2FFF760
:10357000D5FF0190002802D1002011B0F0BD002637
:1035800032000199029800F007FBAB890400002B80
:1035900007D16B68AA68934203D160426041C0B210
:1035A000EBE7280000F050FD0590200000F0C0FD82
:1035B0000400059800F0BCFD8442DDD10136F6B26E
:1035C0000D2EDDD10137FFB2CAE70120D5E700009B
:1035D000F0B58FB0170005AA01931300029116C829
:1035E00016C316C816C316C816C338001630FFF720
:1035F00087FF3B6801267B6000230390BB8100931B
:10360000019B9E4249D8029B05A8991B89B2FFF7EE
:1036100085FF002842D00121079B0533DA7F0A434A
:10362000DA77019A3300964201D140233343037085
:103630000F230025C372039B057343738576C576FC
:10364000441CB889002817D17B68BA68934213D10B
:10365000009B002B14D00133DBB2114800930312FE
:10366000042D10D8207063700135EDB202340D2D99
:10367000E7D10136F6B2C3E7380000F0E5FCEEE72B
:1036800001230093EBE7C0B2DBB20A2D02D8E07051
:103690002371E9E76071A371E6E701200FB0F0BD87
:1036A000FFFF0000F0B5836885B00393030020247A
:1036B00002000168163321301C7001338342FBD1B4
:1036C00008782E38431E9841C0B20B782E2B01D1BA
:1036D0000131FAE7039B013B0193019B8B4204D923
:1036E0001B782E2B01D0019BF5E7072300259C4674
:1036F00001332C001F000295039B994251D20B7895
:103700002E2B08D1019B8B4212D10A239C460633F3
:1037100008261F001EE0222B0AD07C2B08D01E009A
:103720005B3E022E04D93136052E06D82D2B14D03F
:10373000644514D800205F2322E01E003A3E052E87
:1037400002D919365D2E08D93F2026008343002078
:10375000802BEDD134000131CEE7644509D96346B1
:103760000A2B1DD0019B8B421AD326000020591E24
:10377000F0E71E00613E192E0AD8203BDBB23D4324
:10378000661CF6B21419A375062EE3D81675E1E788
:103790001E00413E192EF3D8029E3E430296EFE7EB
:1037A0000020937D202B11D0002806D0029B1D42C3
:1037B00000D00225557505B0F0BD0120137D507570
:1037C000D2187E2393754D3BD375F4E70020F2E7C2
:1037D0006223F7B507000D0000260C7D019306F06B
:1037E0009DFD3618B6B2231C032C00D90323DCB28E
:1037F000231DDBB20F22324011003731092A01D8D4
:1038000030321100EA18013BDBB2917536099C4257
:10381000F0D17E222B19002138009A75FFF713FC96
:1038200001213800FFF7F2FB011E04D178784342F2
:103830005841C0B2FEBD0378002B12D00822C37AD3
:103840001342EDD128000332163007F042FA002867
:10385000E6D101980138C3B20193002BBFD1180003
:10386000E8E70120E6E70000F0B516002F228FB050
:1038700006930B780F000B90934302D100200FB0FA
:10388000F0BD0B9B1B78002BF8D130690D210C305B
:1038900007F020F80122C3B20993737D04929B07BD
:1038A00003D0099B9B18DBB20493BB68002138004E
:1038B0000A93FFF7C8FB00231D001C000893029326
:1038C0000793059316E00123FBE70378E52B02D06D
:1038D000002B00D08EE0002D01D1039A0792049AAC
:1038E000954201D20135EDB2002B10D0E52B00D06E
:1038F00084E000247B69380059098BB200210393CE
:10390000FFF784FB0028E0D17B78002BB6D1069B23
:103910009B05B3D50323069A1340013B012BADD879
:10392000002D01D1039B0793049B9D4216D20021D9
:103930003800FFF76BFB002800D0C4E07B78002B39
:103940009CD13800FFF724FA002897D00A9B1B79F6
:103950001B01ED18049BEDB2AB42F2D8059B002B86
:1039600000D0B3E0049B3800013BDBB20593059A1D
:10397000079B944663449BB2039303991300320060
:10398000FFF726FE002800D178E738000399FFF7FB
:10399000C5FD041E00D171E72022002107F0C3F904
:1039A00031000B222000163107F0A1F91822737D97
:1039B000134023734E4B1B68002B00D18EE00B2568
:1039C0000E260AAAB618AD182A0031000DA898478D
:1039D0000AAB9B8923741B1263743388A3731B1275
:1039E000E3732B78637301220A9B0533D97F0A4363
:1039F000DA775FE0049A954200D200252E2B00D1A1
:103A000077E7C27A0F2A2FD1002C21D110321A4029
:103A100002920299099A8A4200D06BE740221C0068
:103A20001440134200D165E7437B099C0893029B35
:103A3000012B00D05EE703992300013132003800EA
:103A400089B2FFF779FD431E98414042044051E797
:103A5000029A013AD2B20292934200D049E7437BE4
:103A6000089A9342E3D044E708231A4200D040E783
:103A7000002C0BD0029B012B00D0FFE6FFF740FD8E
:103A8000089B984200D0F9E605940FE031000B2224
:103A9000163107F01EF9002800D02BE70122737DB4
:103AA0001A4005920122134200D00CE7069B1B0529
:103AB00000D5E3E6059B39000093039A069B0B981B
:103AC000FFF711FBDBE60135EDB22DE731003800E1
:103AD000FFF77EFE002800D044E7CFE621225623E0
:103AE0002274637422766376A274E3747BE7C04623
:103AF00060090020F7B5080014001E000378202B91
:103B000001D10130FAE70025206025610378002B00
:103B10002ED02F2B2CD0011D01AA00F0C1FA0028B5
:103B200023D080210022019B49028B425241013265
:103B3000AD187F2B16D81F2B17D9DAB211002239F6
:103B4000C9B21D2904D8134FCF403900C9070CD47E
:103B500040218A433C2A08D05C2B06D02E2BD5D09E
:103B6000202BD3D02561A060D0E700231800FEBD34
:103B700023695A1E0023FE2AF8D80378202B01D08F
:103B80002F2B01D10130F8E730602000FFF78AFDCC
:103B90000300EBE701210031042A07D8013152006C
:103BA00089184B7808781B02184370470A2A05D8F1
:103BB0005200891848790B790002F5E700200C2A99
:103BC000F3D852008918C8798B79F5E710B5037AD4
:103BD000022B00D11A438D239B00C01800F00CFA71
:103BE00010BDF7B506000C000192012902D8012092
:103BF0004042FEBDC3698B42F9D3C379202B15D156
:103C00008369C9090022C918FFF7E0FF0028EED038
:103C10006406E40D0019FFF76FF80500F369002052
:103C2000AB42E6D3019B01301D60E2E7102B10D1BF
:103C30008369090AC9B20022C918FFF7C7FF002823
:103C4000D5D02406E40D04196078257800020543D8
:103C5000E4E70C2BCBD10D046D0C4D198369ADB28B
:103C60006F12FF1800223900FFF7B0FF0028BED006
:103C70008022EB05DB0DC55C01339200934207D136
:103C800000223000791CFFF7A1FF0028AFD00023ED
:103C9000C05C00020543E30701D52D11BEE72D05E9
:103CA0002D0DBBE7F7B507000D001400012901D861
:103CB0000020FEBDC3698B42FAD3C379202B13D1F8
:103CC0008369C9090122C918FFF780FF0028EFD0D6
:103CD0006D06ED0D4019230A04704370230C240E69
:103CE0008370C4700120E4E7102B0FD18369090AA7
:103CF000C9B20122C918FFF769FF0028D8D02D06E4
:103D0000ED0D4019047024124470EBE70C2BCFD159
:103D10000E04760C8E198369B6B27112CB1801228B
:103D200019000093FFF752FF0028C1D001232A0099
:103D3000F605F60D1A40019281191D4217D1E3B222
:103D40000B70802301369B009E4208D1009901220E
:103D500038000131FFF73AFF0028A9D00026019B67
:103D600024098019002B0CD0E4B20470BAE70F23A9
:103D7000FF250A782D01134022012A401343DBB2AC
:103D8000DEE70F23027824119A431C401443ECE72A
:103D9000F0B5C46885B005000E00012701928C4281
:103DA00001D20C000027EB690134A34204D2002F9A
:103DB00019D1EC680137F6E7A64214D0210028009B
:103DC00003AAFFF70EFF00280DDBECD0039B002BAE
:103DD000E9D1002F00D0EC60210028000A4AFFF74B
:103DE00061FF071E03D10027380005B0F0BD002E8B
:103DF00002D1019B1C60F7E7220031002800FFF789
:103E000051FF0028F5D1EEE7FFFFFF0F73B5050066
:103E10000C002100280001AAFFF7E3FE061E0FDBBD
:103E2000002221002800FFF73DFF002808D0EB68A2
:103E3000A34201D9013CEC60019C002EE9D176BD82
:103E40000020FCE7F7B504001E00012321600800F4
:103E50000021E360631DA062E171D9778D23170013
:103E600001229B005242E318226358608D202500F6
:103E7000800021542435DA608F4219D0042F01D9F3
:103E80000020FEBD0A00280000F0B6F80028F7D098
:103E9000414BBF30FF18FF303F01C0190379002BA1
:103EA000EED003785B06EBD10830FEF725FF060065
:103EB00028000022310000F09FF8051EE0D001002C
:103EC000077C0B317B1E012BDAD8027BC37A1202EE
:103ED000134380221BB292009342D1D1277289787A
:103EE00009204B1E637100232171A3710133994294
:103EF00008D001380028C3D0A2795B000132A2713A
:103F0000DBB2F4E7EA7DAB7D12021343236104D1F7
:103F100028002430FEF7F0FE2061EA7BAB7B120222
:103F200013439B19A361A97C6A7C09020A43216996
:103F300062814F43FB185701184A2362BF187F0A5A
:103F4000FF1867612B7DE87C1B020191184303D1A8
:103F500028002030FEF7D0FEA379F71B3F18DF4082
:103F60007B1CE3610E4B9F4209D80C23E371019B3C
:103F7000019AE3628F239B000120E25081E7094B05
:103F80009F4201D81023F1E728002C30FEF7B4FE41
:103F900020232062EAE7C046FFFFFF0FFF01000079
:103FA000F40F0000F4FF00000020704770B50125F9
:103FB000037804002B420AD02600406810360368BC
:103FC00032001B6AE1689847051E02D100252800CF
:103FD00070BD23789B0704D4012223789343237078
:103FE000F5E7E368A26860689918036832001B6A05
:103FF00098470028F0D1E9E7436870B504000E0047
:104000001500002B01D1002070BDC3688B4208D081
:10401000FFF7CCFF0028F6D06B070AD50023E66037
:10402000237003222000154022781030154325709C
:10403000EAE7220060683100036810321B69984784
:104040000028EBD1DFE7000013B583890400002BC3
:1040500003D000228281180016BD4068A168884202
:10406000F9D201AA00F01CF8002801D1094BF2E7AF
:10407000802260600198520283B29042EBD3064ADC
:104080009B059B0D9B18A381044B800AC01883B22B
:10409000E1E7C046FFFF000000DCFFFFC0D7FFFFE5
:1040A00070B5040000208C4206D2002020562378F0
:1040B000002802DB1360601C70BD1F201D008543BB
:1040C000C02D1ED103401D38201888422AD83F2514
:1040D000013421780E00AE43802E23D19B0129406C
:1040E00001340B43A042F4D119000F4C8039A14296
:1040F00018D880240D4924015918A14212D3136005
:10410000DAE70F201D008543E02D02D103400C3873
:10411000DAE707251E000020AE43F02ECCD12B405D
:104120000430D1E70020C7E77FFF10000028FFFF21
:1041300030B57E2808D80200613A2023192A00D918
:104140000023C01A80B230BD352400231E49E21A74
:10415000012A09D95208D21895004D5B854201D930
:104160001400F4E71300F2E79BB29B00CA5A904296
:1041700004D3CB18D978821A8A420DDB4B24002352
:104180001249E21A012A16D95208D21895004D5B3D
:1041900085420ED91400F4E79B785BB2012B01D164
:1041A0001340CEE7002B02D09BB21818CAE7084B89
:1041B000FBE71300E5E79BB29B00CA5A8242C2D1DB
:1041C000CB185888BFE7C046B8C000008CBF0000BD
:1041D000A0E3000010B50368DB69984710BD10B577
:1041E00003681B69984710BD10B504686469A0474F
:1041F00010BD10B503681B6A984710BD10B5046860
:10420000646AA04710BD0120704770478068400A6B
:10421000704710B503685C690123A04710BD10B555
:1042200003685C6A0123A04710BD10B504001000AC
:104230005A0263684902C91806F059FD012010BDF1
:10424000F8B5170042680C30040049028D185E0270
:104250003200290000F092F833003A0029002000D3
:1042600000F040F80120F8BD10B50400044B416097
:104270000833036082600C3000F01CF8200010BD91
:104280008CC100008068704710B5054A0549064892
:1042900000F010F80022054B05491A705A5410BD61
:1042A0000104000000C20000680D00206409002025
:1042B0000204000030B5094D094CAB685B035B0F8D
:1042C0009B001C590460AB6801619BB2436063436F
:1042D000A4008360C460426130BDC046004000411C
:1042E00000C70000F7B58026194D01916F680333B0
:1042F0003E439B086E60002B29D0164E2E802E7DEB
:10430000F107FCD51E000768991BBF088F4217D91B
:10431000002E15D0FF2117788C433C430E49577867
:104320000C403F023C439778A4B23904D7780C4341
:104330003F0601993C4310C101910432013EE2E77E
:10434000064B2B802B7DDB07FCD53300D3E7F7BD75
:104350000040004144A5FFFFFF00FFFF04A5FFFF51
:10436000044B054A4908D9611A801A7DD207FCD549
:104370007047C0460040004102A5FFFF70B5040031
:104380000D001600E36829002000B34205D2FFF7B4
:10439000E7FFE368ED18F61AF4E7FFF7E1FF70BDF9
:1043A00010B50100014800F073FA10BDA00D002007
:1043B000012010B50021404202F090FB10BD70B505
:1043C00000F0EAF800240500AC4205D020000134DA
:1043D00000F0B0FDE4B2F7E770BD0000F0B593B0B7
:1043E00001AC0D0016000021422220001F0006F043
:1043F0009AFC0020412F4AD926486B1C0890264879
:10440000A570208468460730C577A5720825234922
:10441000DBB2A180224902A821812249C377A18170
:10442000FD392148FF3961741F31A1740A901F4979
:104430000BA805709120069101210001217660856D
:1044400003310CA80170E1762D31194A69440B70D3
:10445000A3763323228002220A216B441A700DAB0B
:104460001970144BE270A3863B236B441A70A2733D
:104470000FAB3E321A703F23393A6B441A700E4B21
:10448000210030003B32109306F031FC422013B083
:10449000F0BDC0462402020524060000020200000E
:1044A0000904000001020000070580032001052423
:1044B000080B0000070500000580024008B4024B0D
:1044C0009C46103808BC6047DD43000013B56B46BE
:1044D0000268D9710733546819000122A04716BD3C
:1044E00010B5007E0024FF2805D000F0F7FC041E64
:1044F00001D105F053FF200010BD13B5007EFF2849
:1045000002D10120404216BD6B46DC1D210000F0A7
:1045100005FD0028F5D02078F5E713B5007EFF28CB
:1045200009D06B46DC1D0122210000F0E3FC0028CD
:1045300001D0207816BD01204042FBE710B5007E77
:10454000FF2801D000F0F6FC10BD10B5037E00205E
:10455000FF2B02D0180000F043FD10BDF8B5037E1C
:1045600005000E0017000020FF2B11D01400002CB6
:104570000DD0287E00F08AFC002808D022003100EF
:10458000287E00F013FD241A3618002C01D1381BA8
:10459000F8BD05F003FFEAE7014B18787047C04605
:1045A0009C0D00200023FA2243604361054B9200DA
:1045B00082601A0030330361FF2308320260037601
:1045C0007047C04630C7000010B5037EFF2B0DD1E9
:1045D000074A1378002B09D10121117001000376DD
:1045E000044B10314361044800F0EEF810BDC046A2
:1045F0009C0D002020C70000A00D002007B5002959
:104600000BD1002809D1694600F058FC9623009A86
:10461000DB009A4201D100F0A7FB07BD10B50248AC
:10462000FFF7C0FF10BDC046800D0020F7B58446DF
:104630000020040063461E191B5D002B6ED01A007B
:104640004032D2B2012A42D9F42B40D85AB2002AC1
:104650001CDB01228026324D36015D19B54236D36E
:10466000A41880225202934252D31E2856DC2D4AAF
:104670002D4E9B189D0A4200AD198D529B052B4D66
:104680009B0D8A185B1902305380D3E71A001F254F
:10469000AA43C02A1DD12A002B401D3A751CB6180A
:1046A00001963F272E780096BE43802E0FD1009EA4
:1046B0009B013E403343019E0135AE42F1D1022AB7
:1046C00017D1F0261D00F600803DB542C2D301345B
:1046D000B0E70F221D009543E02D02D113400C3AA4
:1046E000DCE707221D009543F02DF0D11340033A7B
:1046F000D4E7032A04D1F8260D4D36025D19E4E70C
:104700008025084A6D039A18AA42E0D20422A1E744
:10471000202803D04200535201308BE7FEBDC04633
:104720000028FFFF0000FFFF00D8FFFF00DCFFFFB5
:1047300000F8FFFF70B5040088B01E4E03AD3100D5
:104740001222280006F0D3FA230007CD07C32A68F7
:1047500031001A60AA88092625009A80183532008F
:104760006846123106F0C3FA32006946280006F0A6
:10477000BEFA114B6561E435EB6180222300200015
:10478000FE335200DA8331300133FF3ADA77002109
:104790000F32FF3006F0C7FA084B04226B62084B59
:1047A000AB62084BEB6200232B634133FF33E254CF
:1047B00008B070BD7EC700000900000109040000B8
:1047C0002FBE000064C700000300F0B5FE3385B0C3
:1047D00001935A8B43690E009C18019B05009B8B2B
:1047E0009B1A0200FF320292517F32683000176834
:1047F0009BB22200B8478446002802D1002005B0B1
:10480000F0BD2300A027634403937268029B7F00DE
:1048100003998C422DD2617804291AD1E678002EB2
:1048200012D102990298497F01314177002A0BD0B9
:10483000E95D072908D808004830800042512172FC
:10484000EA5D0132EA55320021780029D6D0641899
:10485000DEE70529F8D1A1787F2906D9997F481C80
:104860009877A0780143A170EEE7D97F481CD877EC
:10487000F7E7019B588B604480B258836B69FF3522
:104880009870000AD8706A7F01201A71B7E700009B
:1048900070B504000D000126FFF74CFFE121064B27
:1048A000A671A38049020548FFF78EFE280000F09C
:1048B0001DFA300070BDC046EF020000800D0020E0
:1048C000F0B5FC30056B8BB08C1C002D28D102A8F4
:1048D00000F050FA0190019AEBB29A421BD9134FA3
:1048E0001022390006A806F002FA02AB5E5D102223
:1048F0000F2302A989183340CB5C06A863803900D6
:1049000006F0F5F9102202AB36119B189B5D0135BC
:1049100023800434DFE7019B5800C0B20BB0F0BD28
:1049200021002800FFF782FEF7E7C0466DC70000B0
:1049300010B50400002912D0032921D0A0235B0068
:10494000C35C00208B421AD90B00210048339B0026
:1049500045311859FF31FFF769FEC0B206E0030088
:10496000FC335A6AA2235B00C2520120C0230130EB
:104970009B0040001843BF3BFF3BE052E01810BDD6
:1049800001004331FF31FFF79BFFEFE7004870471D
:10499000A00D0020014B58697047C046A00D0020B3
:1049A00010B50A0001000248FFF7C2FF10BDC04663
:1049B000A00D0020024B1868002800D00069704745
:1049C000240F002070B508480D00046811001A007B
:1049D00004AB20001B88002C04D06469201E01D089
:1049E0002800A04770BDC046240F002010B5074C1A
:1049F0000800246811001A0002AB1B88002C03D0A9
:104A0000A469002C00D0A04710BDC046240F002090
:104A100070B586B00D0014000021172268461E00F4
:104A200006F081F90020162E15D96A460B4B9570B9
:104A300013800B4B6946019307235372023B937219
:104A4000084B20009381084B0493402313751722D1
:104A500006F04DF9172006B070BDC04609040000ED
:104A6000020806500240000007058002084B10B5FE
:104A70000833036003000021012204006033416019
:104A80001A700830573206F04EF9200010BDC046AB
:104A9000A8C7000010B52C244C4300194362029BA8
:104AA0000262836210BD10B52C244C430019C2620F
:104AB000038610BD2C234B43C01832300270704760
:104AC00010B52C244C430019C360029B8260036123
:104AD00010BD2C234B43C0188261704710B50100F4
:104AE00004000448FFF770FE002801D0024B1C6050
:104AF00010BDC046A00D0020280F0020034B1B68EE
:104B0000181E01D0603318787047C046280F002067
:104B1000F7B501931E4B00921A680F00002A35D09A
:104B20002C231900414351180E6A002E00D1194E52
:104B30004343D3185D6A002D00D1174D2C235843F1
:104B40001218946A002C00D1144C300006F0D8FCE6
:104B50000200082800D908223100380006F0C7F802
:104B6000280006F0CDFC0200102800D910222900F0
:104B7000009806F0BCF8200006F0C2FC02000428F1
:104B800000D904222100019806F0B1F8F7BDC04613
:104B9000280F00202FBE000099C7000038BE00007B
:104BA00070B50F4E04003268151E16D02C234343F7
:104BB000D5186B69002B02D09847323528702C220B
:104BC000624333689B1832331D78002D05D12B00CA
:104BD0003A220221200000F0F5FE280070BDC046F8
:104BE000280F0020064B10B51B680400002B06D0D0
:104BF0002C2060431818C36A0B60038E138010BD0D
:104C0000280F002010B500232022052100F0DAFE35
:104C10000120404210BD000070B50D0011001A00C7
:104C2000074B06001C680120002C08D02B30704375
:104C30002418E3690120002B01D02800984770BD9B
:104C4000280F002010B5040008001900074B1A684F
:104C5000002A08D02C236343D2189368002B02D07B
:104C6000029A984710BD01204042FBE7280F002020
:104C700010B5040008001900074B1A68002A08D074
:104C80002C236343D218D368002B02D0029A984792
:104C900010BD01204042FBE7280F0020064B020018
:104CA0001B6810B5002B06D02C2050431B181B6925
:104CB000002B00D0984710BD280F0020074B0200A2
:104CC0001B68012010B5002B07D02B3050431B1858
:104CD0009B690120002B00D0984710BD280F0020B1
:104CE00010B5002002F02AFC10BD00002023174A56
:104CF00010B5D1690F200B43D361012214490B7801
:104D000013430B70134B19788143197006211C78DB
:104D10002143197010490C7822430A701A78024016
:104D20001A70602219780A431A700C4B0C4A5A8088
:104D30005A78D209FCD1C1220A4992008B581B0231
:104D40001B0A8B5002F090FC10BDC04600040040CE
:104D5000584400413C44004159440041000C00408B
:104D60000640000000E100E010B5FA2004F030FE3B
:104D700010BD00007FB56A4601001000074B70CBE4
:104D800070C01B680360002013581B681BBA0B50CF
:104D900004301028F8D104B070BDC046B4C700007C
:104DA00000487047C4C70000F7B5234F0B003968AF
:104DB00006001400081E02D0012B01D00120FEBD08
:104DC00015786D06AD0F012D1FD00020022DF6D1F4
:104DD0005278012A10D0022AF0D1637921791B027E
:104DE0000B43072BEBD16B469D1D2800134905F0A3
:104DF0007EFF2B88124A03E0CA69002ADFD01378AD
:104E00002100300002F056F9D9E75378222BD5D192
:104E1000E37892781B0213435A1E934130000B76BD
:104E2000210002F02FF93A68136A002BC6D0107ED9
:104E300098472800C3E7C0462C0F00200C00002034
:104E40000400002070B5050010350400280001F0B2
:104E5000C7FB3F2801D8002013E00020E17801F0D3
:104E6000AFFD0028F7D0280001F0BAFBE1783F2819
:104E700008D98E239B00E218F93B0020FF3B01F08C
:104E8000BFFD70BD002001F0ABFDE4E710B50400EC
:104E900001F086FC002801D1002010BD01F088FC43
:104EA0000028F9D1AE2001238000444302480019B4
:104EB00000791840F1E7C046300F00200B00AE210A
:104EC0008900484310B50449072209180631180023
:104ED00005F00DFF10BDC046300F0020AE239B0033
:104EE000584310B5024B1030C01801F062FB10BDE2
:104EF000300F002070B5AE24A40044432000064EBD
:104F0000103092B2801901F08BFB0500A019FFF759
:104F100099FF280070BDC046300F0020AE239B00D3
:104F2000584310B5024B1030C01801F08EFB10BD75
:104F3000300F0020F7B5040001F032FC002801D149
:104F40000020FEBD01F034FC051EF9D1AE2080002A
:104F500044432600144F2436F619300001F029FB93
:104F60000028EDD03B1928009978019301F028FD25
:104F70000028E5D09E239B00E418E7193900402261
:104F8000300001F04DFB019B04009978002808D007
:104F900003003A00280001F033FD0028D0D02000A3
:104FA000CFE701F01DFDFAE7300F002070B5AE2409
:104FB000A4004443094B2434E418050092B22000B5
:104FC00001F072FB0600200001F0F3FA3F2802D93D
:104FD0002800FFF7AFFF300070BDC046300F002043
:104FE000AE239B00584310B5024B2430C01801F08B
:104FF000F7FA10BD300F002037B5AE22104C00215B
:105000002000920005F08FFEFF230E4A01256371F8
:10501000E2800023082225816381227380246400BA
:105020002200009308492B00084801F0ABFA2B003E
:10503000009522000649074801F0A4FA37BDC04692
:10504000300F002000C2FFFF680F0020400F00203B
:1050500068100020540F002010B5052200210748D9
:1050600005F061FE064801F028FB064C200001F027
:1050700024FB0121200001F02CFB10BD300F00208B
:10508000400F0020540F0020F0B54B7907000C00B2
:1050900085B0022B03D00025280005B0F0BD8B7928
:1050A000022BF8D11E4EB378002BF4D18B78092552
:1050B00033700978641803E02378ED18ADB2E41872
:1050C0006378242B1DD19542F6D96378042B14D133
:1050D00063790A2B11D1237838000393E118114B1F
:1050E0000193114B009302231A0001F041FC0028A8
:1050F000D1D0039B0E35ED18ADB23000FFF7A2FE04
:10510000CAE7052BE1D12100380001F017FC002887
:10511000C1D0A37873702378ED18ADB2E418D4E74A
:10512000300F0020320F0020330F0020F8B50500AB
:1051300060200B001100127800240240202A43D185
:105140002A4F4A790E7938781202324390423BD185
:1051500048782038032837D805F0A8FB02151838FE
:10516000012B06D107232800214A01F0A3FF0124C7
:105170002AE0032BFBD11F4B002BF8D000201C4949
:1051800000E000BFF3E7012BF1D1EBE7012B03D1E6
:10519000280001F077FFEAE7032BE8D10124CD785E
:1051A0008A7821002D0215432E0013483D71A94332
:1051B00001F08FFA114B2640002BD8D06A0831003D
:1051C00000202240FFF71AFA2000F8BD012BDFD0A3
:1051D000032BCCD10A4B002BC9D08B78C978002087
:1051E0000902194300E000BFC1E7C046300F0020AC
:1051F000360F002000000000540F0020FD45000085
:1052000000000000F7B5314C019000911D00E378DB
:105210008B4205D0A3788B4211D000252800FEBD1B
:105220002B4F2C493800AAB201F03EFA2A4B002B32
:105230000BD12A4B002B1DD12000FFF703FEA378D2
:10524000009A93421ED00125E8E763790026FF2BE0
:10525000EFD0AE42EDD01F4B62799B5D9A4207D1F1
:10526000380001F0B6F9002802D1617900E000BFF2
:105270000136EEE7380001F0ACF90028DCD100E09F
:1052800000BFD9E7164B002B02D0002000E000BF82
:105290000020FFF74FFE0028D5D1124801F089F910
:1052A0000028D0D1002DCED03F232E001E401D421D
:1052B000C9D1A178019801F083FB051EC3D033004A
:1052C0003200A178019801F09BFBA7E7300F002086
:1052D000400F0020681100200000000000000000C6
:1052E00000000000540F002010B58C22002102485D
:1052F00005F019FD10BDC046E811002010B50020D2
:10530000FFF7F2FF10BD0000F7B50C00637907004E
:105310001100032B02D000263000FEBD07262279A3
:10532000564312368E42F6D8184D69780029F2D1CC
:105330002178611848782128EDD128008830016053
:10534000087809181248019012480090380001F0BE
:105350000FFB0028DFD0A379012B01D1E379EB709B
:1053600001232B71A3782B702B0088331A68137AD2
:10537000D1791B020B43A978EB800029CCD04023C4
:105380003800054A01F03CFBC6E7C046E8110020A2
:10539000E9110020EA11002030120020F7B513783F
:1053A00015001F2206000C001A40012A01D000241B
:1053B00030E05E4F29793A789142F8D160221800A6
:1053C0001040134212D02028F1D1687801380A2801
:1053D000EDD805F075FA2C008E009400ECFFECFF80
:1053E000ECFFECFFECFF53007B009A00012C01D096
:1053F00001240FE06B78062BD9D1EB78212B0BD150
:1054000088373A68002AD2D029003000137801F09A
:1054100051FE04002000FEBD222BC8D1FFF7CAFABE
:105420000200FB882900300001F044FEF2E7012C65
:10543000DED1EB79A8791B020343EA78A978181C1E
:10544000402B00D9402080B2002914D0012B12D962
:1054500001240138364B397280B200900020FFF7EA
:10546000B1FA2418A3B2002BA1D029003000314A90
:1054700001F020FEBCE700242E4BEEE7012C08D102
:10548000EB79AA791B0213432B4A402B00D98EE7F4
:10549000C8E7032CACD1EC79AB7924021C43EA7841
:1054A000A978201C402C00D94020234B80B2002931
:1054B00007D0012C05D91C788C4202D101381F4B32
:1054C00080B200900020FFF791FA91E7012C00D004
:1054D0008EE7E9781A4B7971002B05D0002000E0A7
:1054E00000BF002800D162E72900300001F0CAFDAA
:1054F0007EE7012C00D07BE72300124A92E7012CC3
:1055000000D075E72300104A8CE7012CECD0032C67
:1055100000D06DE7A9780D4B3971002B00D167E7FA
:10552000002000E000BF023C74E7C046E811002004
:10553000F1110020F0110020301200203112002063
:1055400000000000ED110020EC1100200000000020
:1055500073B5134D0400A8786A7888420DD00024F2
:10556000914208D10F4A0124002A04D000200E499C
:10557000DAB200E000BF200076BD9042F2D00022F7
:105580000A4E9BB21100100000933300FFF72EFA71
:10559000200040233200A97801F032FA0400EAE743
:1055A000E811002000000000F0110020301200205F
:1055B00070B5050010350400280001F011F83F28EF
:1055C00012D90020A17801F0FBF900280CD02800A6
:1055D00001F006F8A1783F2807D92200393240238C
:1055E0000020FF3201F00CFA70BD002001F0F8F944
:1055F000FAE770B5040024340500200000F0D9FF5C
:10560000002801D1002070BD0020697801F0D8F990
:105610000028F7D02E007936FF36310020004022D6
:1056200000F0FEFF6978041E08D00300320000205D
:1056300001F0E6F90028E5D02000E4E701F0D0F918
:10564000FAE70000DC2213B50024002152000948CB
:1056500005F069FB0123802207490094074800F008
:1056600091FF0123802206490094064800F08AFF3A
:1056700013BDC046CC1C0020041D0020DC1C0020F3
:10568000841D0020F01C002010B5102200210548C8
:1056900005F049FB044801F010F8044801F00DF84A
:1056A00010BDC046CC1C0020DC1C0020F01C0020DB
:1056B000F0B585B0039002924B790D00012B03D019
:1056C0000024200005B0F0BD8B79012BF8D1CB79F7
:1056D000002BF5D109788CB26D186B78242B07D18B
:1056E000029B9C42ECD82B78E418A4B2ED18F4E7A6
:1056F000042BE5D16B79012BE2D1AB79032BDFD100
:105700001A4FBA787B781343EA7913430193D7D1C0
:10571000AB783B702E78A419A4B2AE191EE0BB7012
:1057200010E0029B9C421DD87378052B12D13100EA
:10573000039801F003F90028C2D0B378DA09012AEE
:10574000EDD17B703378E418F618019BA4B20133D5
:10575000DBB201933378E418A4B2F6182B79019ADE
:105760009342DED83800FFF723FFAAE7CC1C0020C5
:1057700000207047F8B51D4D1C00AB7806008B4229
:1057800005D06B788B4212D000242000F8BD184958
:105790001848A2B200F088FF174B002B02D000205F
:1057A00000E000BF2800FFF703FF0124EDE7280019
:1057B000FFF71FFF0028F8D1104800F0FAFE00287C
:1057C000F3D1002CF1D03F2327001F401C42ECD125
:1057D0003000697801F0F4F8041EE6D03B003A008E
:1057E0003000697801F00CF9CFE7C046CC1C0020EE
:1057F000041E0020DC1C002000000000F01C002023
:10580000034B044A9A8700223E331A707047C04601
:1058100074140020023A0000124B70B51C000225DF
:105820001A00303425701C002C32117099689A6B64
:105830003C348A1A9A622478002C04D10A4D9D8740
:105840001D003E352C70002908D0002A06D01A7B96
:10585000D20904D02E33197801F004F970BD2F332A
:10586000F9E7C0467414002005200000114B70B504
:105870000500114C002B0DD0607BFFF71FFA0028AC
:1058800008D10E4B0121A3873E3420702800FFF77A
:10589000C3FF70BDA26BA3689B1A80229200934243
:1058A00000D913002F3428002178054A9BB201F05B
:1058B000A7F8EEE7BD4C0000741400200727000095
:1058C00074120020F0B5274C0600E18AA56849BA99
:1058D00089B289B0002903D0280004F0FBFF81B20F
:1058E0002369207D1B0A0006184303BA0393A36BA8
:1058F0001800029305F074F8039B0A00C118029B7C
:10590000194FED1A8023607B9B009D4200D91D003A
:1059100000953B00FFF796F9051E07DAFFF770FFC9
:1059200001213000FFF778FF09B0F0BD2E34247854
:10593000002810D105AF01000822380005F0F3F966
:105940000723290038003E707B703C71BD607D717B
:1059500000F080FFE8E783B23A002100300001F058
:105960004FF8E1E77414002074120020C37D827D9B
:10597000417A1B021343027A09021143827A5BBA0D
:1059800012041143C27A9BB212060A4303D1581E75
:10599000834158007047C17B28290BD1017B02202D
:1059A000C909F7D00120002BF4D09A429B415842FC
:1059B0004000EFE72A29F5D1017B0220C909F1D087
:1059C000E8E70000054810B504003C3421700100F0
:1059D0003E303D31037001200A7010BD7414002068
:1059E00010B540220021024805F09DF910BDC046C7
:1059F0007414002010B540220021024805F093F9EC
:105A000010BDC0467414002073B54B790500082BF7
:105A100001D0002076BD8B79062BFAD1CB79502BA3
:105A2000F7D1162AF5D90F4C8A7823002D331A7036
:105A30000B782600C91823002E33019302232F363A
:105A40001A00009600F094FF0028E2D02300002204
:105A500030331A7028001F232200317800F0D0FF65
:105A60001720D7E77414002073B50500140001292E
:105A700017D17F2312781340022B45D16678012E6F
:105A800042D1E378A1781B020B433DD12279414CEE
:105A9000200030300378042B05D11100280000F0DD
:105AA000E1FF012012E021002E31097891420ED150
:105AB000022BF6D1A26BA3689B1AA36222000323D8
:105AC000203203700A33280000F09AFF76BD2100CF
:105AD0002F310E789642E4D1002BE2D1310028001C
:105AE00000F0B2FF0028DCD13100280001F090FA6C
:105AF0000028D6D12300002230331A7023002F3320
:105B0000197822001F23DEE7602300201A40202A94
:105B1000DCD16378FE2B1BD0FF2BD7D1E378A278A2
:105B20001B0213438342D1D1E379A2791B021343B1
:105B30008342CBD1174B21001A005863303298634F
:105B400098873E3310701870280001F09BFAA8E780
:105B5000E378A2781B0213431AD1E379A2791B02DE
:105B60001343012B14D16A46D3710B4BD61D002B66
:105B700002D0FEF7C3FF30703378002B08D0013B12
:105B80003370320001232100280001F093FA88E7E6
:105B900000209BE774140020FD4A0000F0B5C24CC1
:105BA0001E00230030331F78050091B0012F00D173
:105BB0008CE1032F00D102E2002F43D122002F32CB
:105BC00012788A4201D0012015E01F2E03D1B74A76
:105BD0002068904211D02300042230331A70230031
:105BE0002E33280019782F3400F03CFF280021784C
:105BF00000F038FF002011B0F0BDAD4AA76222626C
:105C00006268A763626222002C32177001221A7048
:105C1000E77B02233A00A6689A436663282A2CD1C0
:105C20002000FFF7A3FE011E03D02800FFF7F4FDBC
:105C300008E0002E00D131E1282F00D0A1E128009A
:105C4000FFF740FE230030331B78022BBBD1260028
:105C50002E362800317801F0DBF90028B3D1A36893
:105C6000A06B3178834200D8D7E1227BD20900D1E2
:105C7000D3E1280000F0F6FEA5E7002E10D0237B2C
:105C8000DB090DD180239B009E4201D90121CCE785
:105C9000B3B2884A280000F0B3FE0028D2D1A9E7A9
:105CA000667B252F09D8192F18D8032F00D1BCE007
:105CB000122F00D181E0002F22D023003C331B782B
:105CC000002BE3D12100636B607B7A4A9BB20F31DA
:105CD000FEF798FF002800DBD9E0D7E738001A3834
:105CE0000B28EAD804F0ECFD8F001A00E9FFE9FF69
:105CF000E9FFE9FFE9FFE9FFE9FF4700E9FF2800C5
:105D00003000FEF74DFF002800D0C3E023003C33F5
:105D10001B78002BD1D1FFF773FDCEE7664B002B2C
:105D200000D1B7E0E17C30008B07CA07DB0FD20F50
:105D30000909FEF771FFE6E706AF3A00300007A950
:105D4000FEF750FF079B002BE0D03A88002ADDD0F9
:105D500008205849013B1BBA12BA0B604A60A3687D
:105D6000002B93D0984200D91800220060632E3295
:105D7000117883B28DE707AF0C220021380004F0C0
:105D8000D2FF0E2302AA9B181A00300006A9FEF7C4
:105D900029FF069A002AB9D002ABDB89002BB5D0C7
:105DA000082112BAF970089202225BBA7B81414B3A
:105DB0003A7207CF07C30C20D1E707AF08220021B2
:105DC000380004F0B0FF3D4B082207931F23202129
:105DD00009A83B7104F0A7FF102220210BA804F0B2
:105DE000A2FF374B300009A90F930BAA0FABFEF7A8
:105DF0008FFE304A130007CF07C307CF07C307CF73
:105E000007C32420ABE72F4A0123002A03D0300028
:105E1000FEF754FF0300012058400323C0B2C00521
:105E20001843244B1860042099E707AF1222002181
:105E3000380004F078FF220023003D321178220060
:105E4000F0203C331B783E3212783870E138034042
:105E5000BB700A23FB71174B7A7339739C4607CFCB
:105E600007C33A6812201A60BA889A80164B002B32
:105E700005D0802261463000920000E000BF220081
:105E800000233E32A3871370984200DA15E70028FA
:105E900000D064E7A368002B00D0F7E623000222BD
:105EA00030331A70CEE6C046741400205553424376
:105EB0005553425374120020194C00000080020216
:105EC00020202020BD4C000000000000E37BA26BDE
:105ED0000292282B05D1636BB618A6639E42DDD2D1
:105EE000ADE62A2B51D1E18A49BA89B2002903D003
:105EF000A06804F0EFFC81B22369207D1B0A000634
:105F0000184303BA0298039304F06AFD039B494FB8
:105F10000A00C118607B3B000096FEF7A9FE00282E
:105F200005DAA36B9E19A663FFF76AFCAEE686420C
:105F300021D9331A0293002808D0A26B83B2D31858
:105F4000C119029A3800A36304F0DAFE230007AEF9
:105F50002F330822002130001F7804F0E4FE0723CD
:105F600000217370029B300035703771B36071711E
:105F700000F070FC66E6A36BF618636BA6639E42A6
:105F80008CD22800FFF772FC5CE6029BF618237B9C
:105F9000A663DB090DD12100636B607B254A9BB2B0
:105FA0000F31FEF72FFE002803DA39002800FFF733
:105FB00033FCA36B626B934200D36FE742E623008E
:105FC0002E331B788B4200D03CE60D2E00D039E6F4
:105FD000E37B282B0AD02A2B18D0174B002B0BD091
:105FE0002100607B0F3100E000BF05E0134B002B68
:105FF00002D0607B00E000BF2300002230331A7023
:1060000023002F33197822001F2343E60C4B002B6B
:10601000F2D0607BFEF742FEEEE71B1AA36223007C
:10602000032230331A7022000D232800203200F0A2
:10603000E7FCE0E574120020000000000000000012
:106040009D4C000070B504008178002000F0FCFC3D
:10605000051E0BD1201D00F0C3FA3F2806D92200EF
:1060600040232800A178AC3200F0CAFC70BDF8B51E
:1060700005004178002000F0E7FC061E11D12F003A
:106080002800EC3740223900183000F0C9FA041E0D
:1060900007D003003A003000697800F0B1FC002816
:1060A00000D100242000F8BD962213B50024002161
:1060B0005200094804F037FE0123402207490094AA
:1060C000074800F05FFA0123402206490094064881
:1060D00000F058FA13BDC046B4140020E0140020AC
:1060E000B814002020150020CC140020002210B588
:1060F000044B05481A6000F0E0FA044800F0DDFAAD
:1061000010BDC046B4140020B8140020CC140020E8
:10611000F7B513004A7907000D00FF2A01D00020CF
:10612000FEBD1C4E7278B1780A43F8D1AA782C785B
:1061300032702A792C19E318002A02D11EE0217846
:1061400064186178052901D09C42F8D3124B2100D4
:106150000193124B38000093022300F009FC002841
:10616000DDD007232A79B1785343E418002908D1F8
:106170007378002B02D03000FFF779FF601B80B2EC
:10618000CEE740233800064A00F03AFC0028EFD161
:10619000C5E7C046B4140020B5140020B614002092
:1061A0006015002010B5114CA2788A420ED062789A
:1061B00000208A4219D10E4A002A03D0002099B249
:1061C00000E000BF2000FFF752FF0DE09AB209493E
:1061D000094800F069FA094B002B02D0002000E0CA
:1061E00000BF2000FFF72EFF012010BDB4140020D7
:1061F0000000000060150020B8140020000000001E
:106200008A18030090B2884202D39A89824202D24D
:106210005A89801880B27047828810B58A4204D8A3
:106220008B1A84899BB29C4203D24389D218891A63
:106230008BB2038210BD0000F7B59608140005006C
:1062400032000B00013A114892B282420ED1032370
:106250002200B60089191A401C4206D0002301A86A
:10626000019304F044FD019B2B60F7BD1878844630
:1062700067465878000238439F783F040743D87830
:106280000433000638432860DCE7C046FFFF000007
:10629000F0B50D00190087B00CAB040018880DABE9
:1062A0001B780F1A16000393BFB2814202D2638992
:1062B000FF1ABFB2A388BB4205D22000FFF7ACFF94
:1062C000208AA78880B2002F20D03B1CB74200D97B
:1062D000331C9FB2A38883421BD9E288191A160087
:1062E000FB1AC318534389B24E4350439BB20193E8
:1062F0002368B6B202961E18039B012B16D08F425C
:106300000AD8310028007A4304F0F1FC380007B0C5
:10631000F0BDC01A80B2DEE73100029A280004F016
:10632000E6FC029B2168019AE818EDE78F4206D847
:1063300031007A4392B22800FFF77EFFE6E703239D
:10634000029A28009A4331000392FFF775FF032356
:106350000298029A18401A422AD0039B019A9C463E
:1063600004231B1A191C9BB2B444934201D96B46F7
:106370009988019B89B25B1A9BB20193002305AAFD
:1063800005936646F65C9E5401339842F9D1236822
:1063900000241218A14207D15918059B2B60019BBC
:1063A000002BB3D01A00C6E7185D10550134F1E791
:1063B0002168F4E7F7B59608150003003200013AAA
:1063C0000D4C92B2A2420CD103232A00B6008019D0
:1063D0001A401D4204D00B6801A9019304F087FC08
:1063E000F7BD0C68270A1C705F70270C240E9F7085
:1063F000DC700433E3E7C046FFFF000070B51C000B
:10640000D31A0E00050011009BB2A24202D24289AB
:106410009B1A9BB2AA889A4203D22800FFF7FCFE7F
:10642000AB88181E0AD0AA88A24208D9EA8829682F
:1064300054433000091904F05AFC012070BDA41A1D
:10644000A4B2F1E7F0B504009C46C38987B09BB2C3
:1064500001930F00008A217A1600A388E28880B297
:10646000002933D10199019D091A89B2854202D2CE
:106470006089091A89B2591A081C89B2B14200D937
:10648000301C86B2019D9D4228D2581BF31AEB188E
:106490005343110055439BB20093236880B25D19AA
:1064A0006346414389B20291012B24D0864218D819
:1064B00039002800724304F01AFC320020000199D0
:1064C000FFF79EFEE081300007B0F0BD9E42D9D3B9
:1064D000F11A51431E007F180190D3E7ED1AADB2B7
:1064E000D1E73900029A280004F001FC029B009ACF
:1064F0002068F918DFE7864206D839002800724381
:1065000092B2FFF757FFD8E70323029A39009A4364
:1065100028000392FFF74EFF03230299029A1940C5
:106520001A422DD0039B009A9C4604235B1A181C28
:106530009BB2AC44934201D96B461888009B80B251
:106540001B1A9BB200933B6805AA05930023029295
:10655000029A9D5C6246D55401339942F8D10025D8
:10656000029B5A182368A84206D11818009B002BDA
:10657000A3D01A003900C4E7515D59550135F2E73F
:106580002068F3E770B58026040004A80578360279
:106590000020B2420CD8A280520092B2E380531E77
:1065A0005242E081216020822572A3816281013004
:1065B00070BDC189028A8B1A9BB2914202D2428974
:1065C0009B1A9BB28288101C9A4200D9181C80B278
:1065D0007047C389008A181A43425841C0B27047B5
:1065E00010B5C489018A8288631A9BB28C4202D298
:1065F00040891B1A9BB2D01A80B210BD70B5C289F7
:10660000038A04009BB292B2FFF7F8FE218A0500CC
:1066100082B289B22000FFF7F3FD2082280070BD0E
:1066200037B504000025C389008A9BB2019500900C
:106630002000FFF72DFE218A0500020089B220000C
:10664000FFF7DEFD208228003EBD10B5C289038A17
:1066500092B29BB2FFF7D2FE10BD70B50400C289A2
:10666000008A95B2131A9BB2904202D962899B1A92
:106670009BB2A2889A4215D1207A002812D170BD0F
:10668000801A80B29042FBD2E288236850431818E7
:1066900004F02DFB012229002000FFF7B1FDE0816D
:1066A0000120ECE72800EDE710B5002A03D0002315
:1066B000FFF7C8FE0200100010BD0023C381038253
:1066C00083885B009BB25A1E5B428281438101201A
:1066D00070470172012070470B4A0300002A0BD05B
:1066E0000A4A1078984205D91820094A434310688D
:1066F000C01870471B1ADBB20020042BF9D81830E1
:1067000043430448F4E7C04600000000E4150020BD
:10671000E015002000C8000070B50500002420002E
:10672000FFF7DAFF00281AD04368280098470C4B7F
:1067300001341B78E4B20433A342F0DA094C33226B
:106740000021200004F0EFFA1022FF21E01C04F0E9
:10675000EAFA20001022FF21133004F0E4FA70BDA1
:10676000E4150020E515002070B505000C001600AA
:10677000086800F0D9FC32002800012123689847FE
:1067800070BD000010B5054A03001078002B02D040
:1067900000F07EFD10BD00F081FDFBE7D000002081
:1067A000024B5878431E9841C0B27047E51500204F
:1067B000024B18784007C00F7047C046E51500200F
:1067C000034B1878FF38431E9841C0B27047C0464B
:1067D000D000002070B5184D04002B780120FF2B4D
:1067E00029D133220021154804F09DFA144E301DA2
:1067F000FFF763FF134B1E60134B002B04D01348AD
:1068000000E000BF124B186000263000FFF764FF65
:10681000002810D0036898470C4B01361B78F6B25D
:106820000433B342F1DA20002C7000F0E9FC2000C0
:1068300000F02EFD012070BDD0000020E5150020E5
:10684000B80000201816002000000000E415002009
:10685000E01500207FB5050040780C0002380328C1
:106860001AD804F023F8026211280121304B1A785B
:106870008A431A701A7849188A431A7000225A708B
:1068800004211A788A4306E0294B1A78D20716D5D4
:10689000042219780A431A70264B1E68002C02D174
:1068A0002000336898472900301DFFF7D6FE002CE2
:1068B00005D1336836E01E4B1A78D207E0D47FBD8D
:1068C0003000FFF709FF002805D04369002B02D0F4
:1068D0002878696898470136F6B2174B1B7804335D
:1068E000B342EDDA124B1A785207E8D504211A7830
:1068F00001A88A431A7000210C2204F014FA6A4697
:106900002B781371052353710A4B1D68002C02D19B
:1069100020002B689847281D01A9FFF79EFE002C38
:10692000CDD12B6801209847C9E70026D5E7C0469E
:10693000E515002018160020E4150020782370B516
:106940008A780C001A4201D0002070BD064B20004E
:106950001D78064B997800F0BDFE0028F4D0210088
:10696000280000F0C7FCF0E7D0000020E51500206B
:10697000F7B506000C001F0000250192019BAB42F9
:1069800001DC012003E06378052B01D00020FEBD6F
:10699000E3789B079B0FBB42F8D121003000FFF743
:1069A000CDFF0028F2D0A378DA09012A05D1099A8F
:1069B000137023780135E418E0E7089AF8E700003F
:1069C0007F2010B50840C909400023314118034811
:1069D0004018002100F051FE10BDC046E515002012
:1069E0007F2010B50840C9094000233141180348F1
:1069F0004018002100F05EFE10BDC046E5150020E5
:106A000070B57F240C4060000D4CCD09241864192A
:106A10000434E57F0020ED0710D40125E67F094806
:106A20002E430078E67700F0B5FC002806D104225A
:106A3000E37FAB43E377E37F9343E37770BDC046E7
:106A4000E5150020D00000207F22CB090A40044930
:106A500052008918C9180431C87FC007C00F704799
:106A6000E515002010B57F240C4063000A4CCA09CC
:106A7000E418A4180434E37F9B070BD4074B187861
:106A800000F0E2FC0223E27F1343E3770123E27F7D
:106A90001343E37710BDC046E5150020D000002069
:106AA00010B57F240C4063000A4CCA09E418A418EE
:106AB0000434E37F9B070BD5074B187800F0D2FC1A
:106AC0000222E37F9343E377E37F013A9343E37743
:106AD00010BDC046E5150020D0000020F0B58DB0F7
:106AE00000F0C7FD002800D186E2BE4B00201E68E2
:106AF00009AC350008CD984728002100FFF77EFD3E
:106B00003368050001209847002D00D174E26078B9
:106B100001380728E9D803F0D3FE08001100E8FF88
:106B20004D025C021C00270268022078FFF7F4FD8A
:106B300000F0F0FA2279AC4B9A70D6E72078FFF794
:106B4000EBFD00F0E7FAA94B002BCED000E000BF30
:106B5000CBE701260421A44D00202B78277833436E
:106B60002B702B1DDA7FB243DA77DA7F8A43DA772C
:106B70006B1DDA7FB243DA77DA7F8A43DA7700F087
:106B8000D3FA602223791A400192602A25D0402A44
:106B90000CD19748002820D000F0C6FA3100380008
:106BA0000AAAFEF701F900289FD116E0DB06DE0EE7
:106BB000012E00D15CE1022E00D184E1002E0CD127
:106BC000019B202B13D1237A0F2B06D8ED18E878E0
:106BD000FFF782FD011E00D08FE109AC2078002173
:106BE00000F032FC8021207800F02EFC7DE7019B34
:106BF000002BF2D160790928EFD803F061FE2E0155
:106C00002601EEFF1D01EEFF0A00BE00EEFF16009A
:106C100020000AA800F08EFA3800A17900F006FCE6
:106C200002232A7813432B705FE708AA6B7802329D
:106C30001370012338000AA900F03CFA55E7A37944
:106C400002936B78029A9A4236D06B78002B07D069
:106C5000380000F09DFBAC783800FFF75DFDAC70AC
:106C6000029B002B28D0581EC0B2FDF793FE0028CF
:106C7000B3D043780493022BAFD101213024C379E0
:106C80009A115B110A400B4052011B0113432A78F1
:106C9000A243040013432B70C37882781B02134372
:106CA000C318093405930791059BA3420CD8514B97
:106CB000002B01D000E000BF4B4B029A5A70380005
:106CC0000AA900F0DFF910E7079A637801920B2B0D
:106CD00003D1E37801932378E4186378042B00D080
:106CE0007BE70025059B1B1B9BB20693424B1B7841
:106CF0000433AB4200DA70E72800FFF7EDFC061E14
:106D000000D16AE721003800069AB36898470390DB
:106D100008282FD9069B83422CD3019B012B0AD133
:106D2000B368364A934201D1049A0192344A93429D
:106D300001D1049B019300222B48019B9A420DD163
:106D40002B002100039A133000F0F4FC039BE4189D
:106D5000294B1B7804339D42A6DD3EE7A378D31868
:106D6000DBB2C318D978FF2900D036E70132DD70D5
:106D7000D2B2E2E70135EDB2B8E7E3881A0A501E55
:106D8000DBB20E2800D928E703F09AFD0F00260099
:106D9000460027FF27FF4F00260027FF27FF27FF7A
:106DA00027FF27FF27FF27FF1800FDF7EFFD12231E
:106DB000020038000AA900F07DF9F4E6114B002B1F
:106DC00000D10AE7FDF7ECFF021E00D105E7C3780A
:106DD00081781B020B43ECE7022A15D11800FDF75E
:106DE000D9FDF1E718160020E5150020000000008D
:106DF000A94D000000000000E415002089500000AB
:106E0000B1560000A14D00007C4A002A00D1E4E602
:106E1000180000E000BFD7E718002189FDF7C0FD8A
:106E2000021E00D1D9E60378C3E7754B002B00D1D1
:106E3000D3E600E000BFF3E7E388012B00D0CCE607
:106E40002A78073313432B7039E7E388012B00D0EE
:106E5000C3E608222B789343F5E72B7808AA980617
:106E600099080223C00F1940023201431180E1E664
:106E7000237A0F2B00D9B0E6ED18E878FFF72CFC49
:106E8000002800D1A9E601000AAA38000C31FFF75A
:106E90006BFC002800D028E66025602223791D4085
:106EA000134200D099E663790A3B012B00D994E69E
:106EB000280000F039F963790A2B00D0FFE608AB0F
:106EC0009A1C1570B5E6237A02937823029A1A4227
:106ED00000D082E67F230299D2090B405B00EB18B9
:106EE0009B18D87C0493FFF7F7FB019B0390002BC2
:106EF00009D0002800D170E6010038000C310AAA40
:106F0000FFF732FC4FE663791A00B243012A0CD036
:106F1000002B00D061E6049B08AA0433DB7F023219
:106F20009B07DB0F1380330084E6E288002A05D13B
:106F300038000299012B14D1FFF7B2FD039B002BFF
:106F400000D1D2E519000AAA0C313800FFF70CFC79
:106F50000535002000F0E8F8EB7FDB0700D5C4E53D
:106F6000ADE6FFF77FFDE9E77F2001262579254B78
:106F700028404100EA095B189B181A1DD17FB143D4
:106F8000D177D17F0336B143D177002806D12900CC
:106F900062792078A36800F0DBF8A6E5D87CFFF7DB
:106FA0009BFB031E28D01E69290062792078A36804
:106FB000B0479AE5134B1A78D20700D495E5124AE8
:106FC000002A00D191E518780007C00F00E000BF4B
:106FD0008BE50C4B1B78DB0700D486E50B4B002BB5
:106FE00000D182E500E000BF7FE56368002B00D19F
:106FF0007BE5A068984778E50DB0F0BD0000000083
:1070000000000000E5150020000000000000000066
:107010007F22CB090A40044952008918C91804315B
:10702000C87F8007C00F7047E515002070B5134B6F
:107030000600D9899889421A151C92B2402A00D9B3
:1070400040251A78ADB27F2A0ED9884211D00C4C57
:107050002A009968200003F04AFE802122002B00BC
:107060003000FFF7CDFC70BD884204D10021002222
:10707000F5E78021FBE70021014AF0E71C1600201C
:107080003016002070B50A4E0400082230000D00B2
:1070900003F02DFE002169560022C943C90FF2609A
:1070A00013002000C901B260FFF7AAFC70BDC04602
:1070B0001C160020F7B5164F1500060008223800F0
:1070C0000C00019303F013FE0023BD60FB81E27905
:1070D000A379120201991A43131C8A4201D96B4603
:1070E0009B8899B2BB81002A07D0002901D0281EB5
:1070F00002D03000FFF79AFFFEBD00216156130059
:10710000C943C90F3000C901FFF77AFCF4E7C04654
:107110001C16002010B514220021024803F003FEC3
:1071200010BDC0461C160020014B18617047C046B8
:107130001C16002010B5054C01000822200003F0A9
:10714000D6FD0023A360E36010BDC0461C160020DE
:1071500070B5284C1E0023780500DA09C9098A4257
:1071600013D00020864232D1234B834203D021002A
:10717000280000F09DF823690120002B27D0220071
:10718000032128009847012021E07F2B06D8A3681F
:10719000181E1CD03200194903F0A9FDA268E3892A
:1071A00092199B19A260E2889BB2E3819A4201D0B6
:1071B0003F2E1BD82369002B0AD1002161560023E2
:1071C000C943C90F1A002800C901FFF719FC70BD97
:1071D0000221220028009847011EEED1280000F06D
:1071E00033F98021280000F02FF9CCE72800FFF7C1
:1071F0001DFFECE71C160020B172000030160020C5
:1072000001221E4B30B519780A431A709A78D207BA
:10721000FCD59A78D207FCD41F25194A1C8D126818
:10722000AC43910C29400C431C85198D500B154C17
:1072300028408001214001431985198D124892018F
:10724000520F014012030A431A850322D9780A43D8
:10725000DA700C22D9780A43DA700C4A5A6200229A
:107260001A8106321A709A789207FCD4998B9A8BFD
:107270000A439A8308221A8330BDC0460050004159
:10728000246080003FF8FFFFFF8FFFFF7C16002087
:107290008022014B1A60704700E100E08022034B1E
:1072A000DA67BFF34F8FBFF36F8F704704E100E0E1
:1072B0000B785B0607D14B78052B04D180228B78A5
:1072C0001343084A9372084B084A09491A605A68DE
:1072D0001140802292020A435A605A68920B92032C
:1072E0005A607047005000417C1600207016002044
:1072F000FF3F00F0F0B54D790A792D02154368057E
:10730000420D7F239446012600228C782340E40915
:107310003000D71CB840604505DA0132072AF7D1A2
:1073200000206D0520D407205D00164E2D192D017B
:10733000751902406F681607134A5B013A403243E1
:107340006A60124A9B18CA7819789207920F013224
:107350000240002C09D181430A431A7011221A718C
:107360005A7A063802435A72F0BD702012018143E6
:107370000A431A7022221A71597A203A0A435A7221
:107380006F38F1E77C160020FFFFFF8F00510041AE
:1073900070470000F0B57F2720480F407E01C909E3
:1073A0007D0034186D181E482D012A501D4D002FE8
:1073B00013D1002A11D1002B0FD11B4F3A78D209DB
:1073C0008A420AD080220760476892022F403A43DF
:1073D00042604268920B920342609B04801900292C
:1073E0000ED142681B092A401343436043689B0B3C
:1073F0009B034360402323713C3B0120E371F0BDBC
:1074000042699B0C2A4042614269920B92031343EA
:10741000436180236371783BEFE7C0460051004130
:107420007C160020FF3F00F070160020002310B5EE
:107430001A008021FFF7AEFF0122024B9A831A83C4
:1074400010BDC046005000417F23054A0B405B0140
:107450009B18C9092022012900D010225A717047B7
:10746000005100417F23054A0B405B019B18C9096D
:107470002222012900D011221A71704700510041C7
:10748000F0B5002401262A4B89B01B8C9BB20393D4
:10749000E3B201933300A340039A1A4243D0254B31
:1074A0006201D3180193DB79D9B2029102210B4218
:1074B0001CD0214B05AD9B180021082228005F69D4
:1074C00003F031FCE023DB002B808023E2B25B423F
:1074D00013432B710023BF0431002800BF0C6B71D4
:1074E000AF60FFF7B7F90222019BDA71029B3342CA
:1074F00019D0114B05AD62019B180021082228000C
:107500005F6803F010FCE023DB002B80E3B22B71FB
:107510000023BF0431002800BF0C6B71AF60FFF780
:1075200099F9019BDE710134082CB1D109B0F0BD8D
:1075300000500041005100417C160020F0B5434C42
:1075400085B0A38B258B1D4004231D420DD001AEB9
:107550000021A3830C22300003F0E5FBC0230121AE
:107560009B0030003380FFF775F901273D4210D0B2
:10757000102301AEA7830021A3830C2223833000B4
:1075800003F0D1FB80233900DB0030003380FFF7AC
:1075900061F910231D420ED001AEA3830021A38206
:1075A0000C22300003F0BFFBA0230121DB003000E0
:1075B0003380FFF74FF908231D422ED01120C02140
:1075C000A383234BA0825A68224C890522400A4398
:1075D0005A605A6922401143596113211E4A1070A2
:1075E00051721E4A1E491A605A6801A81140802231
:1075F00092020A435A605A680021920B92035A6021
:107600000C2203F090FB80236A465B0093800023EA
:10761000012101A81372FFF71DF9124C237ADB0632
:107620000FD56B460022DA80C0230C4A01A8DB008C
:10763000038002AB22CA22C30121FFF70BF91123F9
:107640002372FFF71DFF05B0F0BDC046005000419A
:107650007C160020FFFFFF8F0051004170160020B4
:10766000FF3F00F0FF50004110B50020FFF7B2F8D7
:1076700010BD10B5FFF7A4F810BD02780300D207C3
:10768000D00F002A12D11A785207D10F002A0CDB32
:107690001A78D207D00F002A0AD11A78520704D4D8
:1076A0000422012019780A431A7070470020FCE771
:1076B0000800FAE7027803005207D00F002A06DA22
:1076C0001A78D20704D404211A788A431A707047B2
:1076D0000020FCE7020003794079D27800021843C9
:1076E00040059207430D920F022A0DD00020032A75
:1076F00012D0012A07D102394A4251410B4A891856
:1077000099424041C0B270470020022906D1084A80
:107710009B1858425841F5E7022903D040229A426B
:107720004041EFE78022D200F9E7C046FF030000A6
:1077300000FEFFFF70B57F268A18914200D370BD0E
:107740004C78052C06D18D782C0034406400ED096E
:10775000041963550C780919EFE77047F0B5150067
:107760000C001E0089B00EAB00229B5E0FAA12888F
:10777000019005925A1BD11752184A400292321BAF
:10778000D11752184A4003920399029A8A4205DDA2
:1077900032001E00130022002C001500B44205DD4B
:1077A0002A001D001300220034001600321B91B283
:1077B0000691591BC8170918414012B20791D10F01
:1077C0008A1852100092012204929D4202DB01238A
:1077D0005B420493B44222DC019B039A1B689B69C1
:1077E0001F00029B934216DD22002900059B019891
:1077F000B847009B079A9A1A11B293B200911204EB
:1078000006D5049AAD18069A2DB2D3181BB2009370
:10781000013424B2DEE72A002100059BE7E709B026
:10782000F0BD704710B504682469A04710BD37B596
:1078300006AC258804680095A46BA04737BD37B512
:1078400006AC258804680095E46BA04737BD73B586
:1078500006AC0025655F07AC268804680196009594
:10786000246CA04773BDF0B5160004000D0085B070
:1078700003930AAB1F8803685B699847039B2268E0
:10788000013B9B191BB2009301972B00290020009C
:10789000976A3200B84723682000DB6A984705B032
:1078A000F0BDF0B505001C000E00170085B00AAB56
:1078B0001B88013C03930368A4195B6998470399EB
:1078C0002A68019100973100280023B2946A3A0097
:1078D000A0472B682800DB6A984705B0F0BDF0B5DB
:1078E0000E0087B003930CAB029200229B5E040053
:1078F00004930DAB1B883500059303685B699847BB
:10790000039A2368B21895420BDA059A290000926F
:107910001B6A20001F00029A049B0135B8472DB254
:10792000EEE72000DB6A984707B0F0BD13B5019180
:107930000E24015F0C22835E02680091146C002209
:107940001100A04713BDF0B5040015000E0087B06C
:1079500004930CAB00229B5E05930DAB1B88039335
:1079600003685B699847039A2368009231002A00F4
:1079700020005F6A049BB847059B03995A1E236841
:1079800000915219310020005F6A12B2049BB8477F
:10799000039A2368009231002A0020001F6A059B89
:1079A000B8470499039A23680139009289192A007B
:1079B00020001F6A09B2059BB84723682000DB6AD4
:1079C000984707B0F0BD7047F0B5456A002D2FD03D
:1079D00000292DDB002A2BDB0C26845F8C4227DD5F
:1079E0000E26845F944223DD867E0827C45F022E24
:1079F0001FD0032E25D0012E03D1D04300190A0039
:107A000001B2E61D0724F01720408019C010424340
:107A1000C81720404018C01000B212188020214022
:107A20000841AE1841B2AA56002B10D00A4332705A
:107A3000F0BDD643C94342890919921909B212B25D
:107A4000DFE7C94340894018110002B2D9E78A43F1
:107A5000EDE7F0B5456A002D1CD000291ADB002A9D
:107A600018DB0C26845F8C4214DD0E26845F944262
:107A700010DD867E0827C45F022E0CD0032E12D0A4
:107A8000012E03D1D04300190A0001B262435118FC
:107A900049004B53F0BDD643C94342890919921995
:107AA00009B212B2F2E7C94340894018110002B28C
:107AB000ECE70300406A70B5002810D007250822C3
:107AC0009C5E5B890734E2172A401219D2105A4390
:107AD0004B1E9941494292B2C9B203F024F970BDDC
